S00B00005043502E7372656336
S113000012C021C020C01FC01EC01DC01CC01BC008
S11300101BC019C018C017C016C015C014C013C027
S113002012C011C010C011241FBECFE5D4E0DEBF42
S1130030CDBF20E0A0E6B0E001C01D92A236B20719
S1130040E1F744D0B0C0DCCF1F920F920FB60F92ED
S113005011248F939F931EBC809160009091610046
S11300600196909361008093600083E08EBD80E8E8
S113007091EC9DBD8CBD9F918F910F900FBE0F9001
S11300801F90189581E085BB089582E085BB089593
S113009084E085BB089587E085BB089515BA08956B
S11300A001C0F3DF80916000909161001816190679
S11300B0C4F701C0F3DF8091600090916100029762
S11300C0CCF31092610010926000089583E08EBD1D
S11300D011BA87E084BB8FEF82BB84E089BF80E8DC
S11300E08FBF80E891EC9DBD8CBD80B38B3F99F5AB
S11300F001C0C8DF8091600090916100C297CCF389
S113010001C0C3DF8091600090916100C797CCF378
S11301100CC0109261001092600080E090E0C0DF9B
S11301202296D0936100C0936000C0916000D0918A
S11301306100CC33D1056CF301C0AADF809160006B
S11301409091610084369105C4F3A8DF1092610098
S113015010926000C6CF80B3873FB1F401C09BDF2B
S1130160809160009091610018161906C4F701C0CF
S113017095DF80916000909161000297CCF310921A
S1130180610010926000ADCF80B38F3E31F4809156
S113019060009091610084DFA4CF80DF1092610041
S10D01A0109260009ECFF894FFCF88
S9030000FC
